{
  "contractName": "FlashSwap",
  "abi": [
    {
      "inputs": [
        {
          "internalType": "address",
          "name": "pancakeFactory",
          "type": "address"
        },
        {
          "internalType": "address",
          "name": "apeFactory",
          "type": "address"
        },
        {
          "internalType": "address",
          "name": "wethAddress",
          "type": "address"
        },
        {
          "internalType": "address",
          "name": "apeRouter",
          "type": "address"
        },
        {
          "internalType": "address",
          "name": "pancakeRouter",
          "type": "address"
        },
        {
          "internalType": "address",
          "name": "beneficiaryAddress",
          "type": "address"
        }
      ],
      "stateMutability": "nonpayable",
      "type": "constructor"
    },
    {
      "stateMutability": "payable",
      "type": "receive",
      "payable": true
    },
    {
      "inputs": [
        {
          "internalType": "address",
          "name": "token0",
          "type": "address"
        },
        {
          "internalType": "address",
          "name": "token1",
          "type": "address"
        },
        {
          "internalType": "uint256",
          "name": "amount0",
          "type": "uint256"
        },
        {
          "internalType": "uint256",
          "name": "amount1",
          "type": "uint256"
        },
        {
          "internalType": "address",
          "name": "startFactory",
          "type": "address"
        },
        {
          "internalType": "address",
          "name": "endRouterAddress",
          "type": "address"
        },
        {
          "internalType": "uint256",
          "name": "repay",
          "type": "uint256"
        }
      ],
      "name": "startArbitrage",
      "outputs": [],
      "stateMutability": "nonpayable",
      "type": "function"
    },
    {
      "inputs": [
        {
          "internalType": "address",
          "name": "sender",
          "type": "address"
        },
        {
          "internalType": "uint256",
          "name": "amount0",
          "type": "uint256"
        },
        {
          "internalType": "uint256",
          "name": "amount1",
          "type": "uint256"
        },
        {
          "internalType": "bytes",
          "name": "data",
          "type": "bytes"
        }
      ],
      "name": "pancakeCall",
      "outputs": [],
      "stateMutability": "nonpayable",
      "type": "function"
    }
  ],
  "bytecode": "0x60a06040523480156200001157600080fd5b5060405162001931380380620019318339818101604052810190620000379190620001d5565b84600160006101000a81548173ffffffffffffffffffffffffffffffffffffffff021916908373ffffffffffffffffffffffffffffffffffffffff16021790555085600260006101000a81548173ffffffffffffffffffffffffffffffffffffffff021916908373ffffffffffffffffffffffffffffffffffffffff1602179055508373ffffffffffffffffffffffffffffffffffffffff1660808173ffffffffffffffffffffffffffffffffffffffff1660601b81525050806000806101000a81548173ffffffffffffffffffffffffffffffffffffffff021916908373ffffffffffffffffffffffffffffffffffffffff16021790555081600360006101000a81548173ffffffffffffffffffffffffffffffffffffffff021916908373ffffffffffffffffffffffffffffffffffffffff16021790555082600460006101000a81548173ffffffffffffffffffffffffffffffffffffffff021916908373ffffffffffffffffffffffffffffffffffffffff160217905550505050505050620002b9565b600081519050620001cf816200029f565b92915050565b60008060008060008060c08789031215620001ef57600080fd5b6000620001ff89828a01620001be565b96505060206200021289828a01620001be565b95505060406200022589828a01620001be565b94505060606200023889828a01620001be565b93505060806200024b89828a01620001be565b92505060a06200025e89828a01620001be565b9150509295509295509295565b600062000278826200027f565b9050919050565b600073ffffffffffffffffffffffffffffffffffffffff82169050919050565b620002aa816200026b565b8114620002b657600080fd5b50565b60805160601c61163c620002f56000398061043f528061049c52806104fd52806106ca528061075f528061086a5280610956525061163c6000f3fe60806040526004361061002d5760003560e01c80630271025e14610039578063848008121461006257610034565b3661003457005b600080fd5b34801561004557600080fd5b50610060600480360381019061005b9190610e75565b61008b565b005b34801561006e57600080fd5b5061008960048036038101906100849190610f13565b610226565b005b60008373ffffffffffffffffffffffffffffffffffffffff1663e6a4390589896040518363ffffffff1660e01b81526004016100c892919061124a565b60206040518083038186803b1580156100e057600080fd5b505afa1580156100f4573d6000803e3d6000fd5b505050506040513d601f19601f820116820180604052508101906101189190610e10565b9050600073ffffffffffffffffffffffffffffffffffffffff168173ffffffffffffffffffffffffffffffffffffffff16141561018a576040517f08c379a000000000000000000000000000000000000000000000000000000000815260040161018190611308565b60405180910390fd5b8073ffffffffffffffffffffffffffffffffffffffff1663022c0d9f87873087876040516020016101bc929190611273565b6040516020818303038152906040526040518563ffffffff1660e01b81526004016101ea94939291906113bd565b600060405180830381600087803b15801561020457600080fd5b505af1158015610218573d6000803e3d6000fd5b505050505050505050505050565b6060600267ffffffffffffffff8111801561024057600080fd5b5060405190808252806020026020018201604052801561026f5781602001602082028036833780820191505090505b50905060008084848101906102849190610e39565b9150915060008060003373ffffffffffffffffffffffffffffffffffffffff16630dfe16816040518163ffffffff1660e01b815260040160206040518083038186803b1580156102d357600080fd5b505afa1580156102e7573d6000803e3d6000fd5b505050506040513d601f19601f8201168201806040525081019061030b9190610e10565b905060003373ffffffffffffffffffffffffffffffffffffffff1663d21220a76040518163ffffffff1660e01b815260040160206040518083038186803b15801561035557600080fd5b505afa158015610369573d6000803e3d6000fd5b505050506040513d601f19601f8201168201806040525081019061038d9190610e10565b905060008b1461039d578161039f565b805b876000815181106103ac57fe5b602002602001019073ffffffffffffffffffffffffffffffffffffffff16908173ffffffffffffffffffffffffffffffffffffffff168152505060008b146103f457806103f6565b815b8760018151811061040357fe5b602002602001019073ffffffffffffffffffffffffffffffffffffffff16908173ffffffffffffffffffffffffffffffffffffffff16815250507f000000000000000000000000000000000000000000000000000000000000000073ffffffffffffffffffffffffffffffffffffffff168273ffffffffffffffffffffffffffffffffffffffff1614610496578a610498565b895b93507f000000000000000000000000000000000000000000000000000000000000000073ffffffffffffffffffffffffffffffffffffffff168273ffffffffffffffffffffffffffffffffffffffff16146104f357896104f5565b8a5b9250505060007f000000000000000000000000000000000000000000000000000000000000000073ffffffffffffffffffffffffffffffffffffffff168660008151811061053f57fe5b602002602001015173ffffffffffffffffffffffffffffffffffffffff161461057c578560008151811061056f57fe5b6020026020010151610592565b8560018151811061058957fe5b60200260200101515b90506000831115610954578073ffffffffffffffffffffffffffffffffffffffff1663095ea7b386856040518363ffffffff1660e01b81526004016105d8929190611273565b602060405180830381600087803b1580156105f257600080fd5b505af1158015610606573d6000803e3d6000fd5b505050506040513d601f19601f8201168201806040525081019061062a9190610fd4565b5060608573ffffffffffffffffffffffffffffffffffffffff166318cbafe58560008a30426040518663ffffffff1660e01b815260040161066f959493929190611363565b600060405180830381600087803b15801561068957600080fd5b505af115801561069d573d6000803e3d6000fd5b505050506040513d6000823e3d601f19601f820116820180604052508101906106c69190610f93565b90507f000000000000000000000000000000000000000000000000000000000000000073ffffffffffffffffffffffffffffffffffffffff1663d0e30db08260018151811061071157fe5b60200260200101516040518263ffffffff1660e01b81526004016000604051808303818588803b15801561074457600080fd5b505af1158015610758573d6000803e3d6000fd5b50505050507f000000000000000000000000000000000000000000000000000000000000000073ffffffffffffffffffffffffffffffffffffffff1663a9059cbb33876040518363ffffffff1660e01b81526004016107b8929190611221565b602060405180830381600087803b1580156107d257600080fd5b505af11580156107e6573d6000803e3d6000fd5b505050506040513d601f19601f8201168201806040525081019061080a9190610fd4565b610849576040517f08c379a0000000000000000000000000000000000000000000000000000000008152600401610840906112e8565b60405180910390fd5b6000858260018151811061085957fe5b602002602001015103111561094e577f000000000000000000000000000000000000000000000000000000000000000073ffffffffffffffffffffffffffffffffffffffff1663a9059cbb6000809054906101000a900473ffffffffffffffffffffffffffffffffffffffff1687846001815181106108d457fe5b6020026020010151036040518363ffffffff1660e01b81526004016108fa929190611273565b602060405180830381600087803b15801561091457600080fd5b505af1158015610928573d6000803e3d6000fd5b505050506040513d601f19601f8201168201806040525081019061094c9190610fd4565b505b50610cb8565b7f000000000000000000000000000000000000000000000000000000000000000073ffffffffffffffffffffffffffffffffffffffff16632e1a7d4d836040518263ffffffff1660e01b81526004016109ad9190611348565b600060405180830381600087803b1580156109c757600080fd5b505af11580156109db573d6000803e3d6000fd5b5050505060608573ffffffffffffffffffffffffffffffffffffffff16637ff36ab54760008a30426040518663ffffffff1660e01b8152600401610a22949392919061129c565b6000604051808303818588803b158015610a3b57600080fd5b505af1158015610a4f573d6000803e3d6000fd5b50505050506040513d6000823e3d601f19601f82011682018060405250810190610a799190610f93565b90508481600181518110610a8957fe5b602002602001015111610ad1576040517f08c379a0000000000000000000000000000000000000000000000000000000008152600401610ac890611328565b60405180910390fd5b8173ffffffffffffffffffffffffffffffffffffffff1663a9059cbb33876040518363ffffffff1660e01b8152600401610b0c929190611221565b602060405180830381600087803b158015610b2657600080fd5b505af1158015610b3a573d6000803e3d6000fd5b505050506040513d601f19601f82011682018060405250810190610b5e9190610fd4565b5060008582600181518110610b6f57fe5b6020026020010151031115610cb6578173ffffffffffffffffffffffffffffffffffffffff1663a9059cbb6000809054906101000a900473ffffffffffffffffffffffffffffffffffffffff168473ffffffffffffffffffffffffffffffffffffffff166370a08231306040518263ffffffff1660e01b8152600401610bf59190611206565b60206040518083038186803b158015610c0d57600080fd5b505afa158015610c21573d6000803e3d6000fd5b505050506040513d601f19601f82011682018060405250810190610c459190610ffd565b6040518363ffffffff1660e01b8152600401610c62929190611273565b602060405180830381600087803b158015610c7c57600080fd5b505af1158015610c90573d6000803e3d6000fd5b505050506040513d601f19601f82011682018060405250810190610cb49190610fd4565b505b505b5050505050505050505050565b600081359050610cd4816115aa565b92915050565b600081519050610ce9816115aa565b92915050565b600081359050610cfe816115c1565b92915050565b600082601f830112610d1557600080fd5b8151610d28610d2382611436565b611409565b91508181835260208401935060208101905083856020840282011115610d4d57600080fd5b60005b83811015610d7d5781610d638882610dfb565b845260208401935060208301925050600181019050610d50565b5050505092915050565b600081519050610d96816115d8565b92915050565b60008083601f840112610dae57600080fd5b8235905067ffffffffffffffff811115610dc757600080fd5b602083019150836001820283011115610ddf57600080fd5b9250929050565b600081359050610df5816115ef565b92915050565b600081519050610e0a816115ef565b92915050565b600060208284031215610e2257600080fd5b6000610e3084828501610cda565b91505092915050565b60008060408385031215610e4c57600080fd5b6000610e5a85828601610cef565b9250506020610e6b85828601610de6565b9150509250929050565b600080600080600080600060e0888a031215610e9057600080fd5b6000610e9e8a828b01610cc5565b9750506020610eaf8a828b01610cc5565b9650506040610ec08a828b01610de6565b9550506060610ed18a828b01610de6565b9450506080610ee28a828b01610cc5565b93505060a0610ef38a828b01610cc5565b92505060c0610f048a828b01610de6565b91505092959891949750929550565b600080600080600060808688031215610f2b57600080fd5b6000610f3988828901610cc5565b9550506020610f4a88828901610de6565b9450506040610f5b88828901610de6565b935050606086013567ffffffffffffffff811115610f7857600080fd5b610f8488828901610d9c565b92509250509295509295909350565b600060208284031215610fa557600080fd5b600082015167ffffffffffffffff811115610fbf57600080fd5b610fcb84828501610d04565b91505092915050565b600060208284031215610fe657600080fd5b6000610ff484828501610d87565b91505092915050565b60006020828403121561100f57600080fd5b600061101d84828501610dfb565b91505092915050565b6000611032838361104d565b60208301905092915050565b6110478161151e565b82525050565b611056816114c4565b82525050565b611065816114c4565b82525050565b60006110768261146e565b6110808185611491565b935061108b8361145e565b8060005b838110156110bc5781516110a38882611026565b97506110ae83611484565b92505060018101905061108f565b5085935050505092915050565b60006110d482611479565b6110de81856114a2565b93506110ee818560208601611566565b6110f781611599565b840191505092915050565b61110b81611530565b82525050565b600061111e601c836114b3565b91507f436f756c64204e6f74205265706179206c6f616e20616d6f756e7421000000006000830152602082019050919050565b600061115e6018836114b3565b91507f5468697320706f6f6c20646f6573206e6f7420657869737400000000000000006000830152602082019050919050565b600061119e6027836114b3565b91507f4661696c656420746f2067657420656e6f7567682066726f6d2073776170207460008301527f6f207265706179000000000000000000000000000000000000000000000000006020830152604082019050919050565b61120081611514565b82525050565b600060208201905061121b600083018461103e565b92915050565b6000604082019050611236600083018561103e565b61124360208301846111f7565b9392505050565b600060408201905061125f600083018561105c565b61126c602083018461105c565b9392505050565b6000604082019050611288600083018561105c565b61129560208301846111f7565b9392505050565b60006080820190506112b16000830187611102565b81810360208301526112c3818661106b565b90506112d2604083018561103e565b6112df60608301846111f7565b95945050505050565b6000602082019050818103600083015261130181611111565b9050919050565b6000602082019050818103600083015261132181611151565b9050919050565b6000602082019050818103600083015261134181611191565b9050919050565b600060208201905061135d60008301846111f7565b92915050565b600060a08201905061137860008301886111f7565b6113856020830187611102565b8181036040830152611397818661106b565b90506113a6606083018561103e565b6113b360808301846111f7565b9695505050505050565b60006080820190506113d260008301876111f7565b6113df60208301866111f7565b6113ec604083018561103e565b81810360608301526113fe81846110c9565b905095945050505050565b6000604051905081810181811067ffffffffffffffff8211171561142c57600080fd5b8060405250919050565b600067ffffffffffffffff82111561144d57600080fd5b602082029050602081019050919050565b6000819050602082019050919050565b600081519050919050565b600081519050919050565b6000602082019050919050565b600082825260208201905092915050565b600082825260208201905092915050565b600082825260208201905092915050565b60006114cf826114f4565b9050919050565b60006114e1826114f4565b9050919050565b60008115159050919050565b600073ffffffffffffffffffffffffffffffffffffffff82169050919050565b6000819050919050565b600061152982611542565b9050919050565b600061153b82611514565b9050919050565b600061154d82611554565b9050919050565b600061155f826114f4565b9050919050565b60005b83811015611584578082015181840152602081019050611569565b83811115611593576000848401525b50505050565b6000601f19601f8301169050919050565b6115b3816114c4565b81146115be57600080fd5b50565b6115ca816114d6565b81146115d557600080fd5b50565b6115e1816114e8565b81146115ec57600080fd5b50565b6115f881611514565b811461160357600080fd5b5056fea264697066735822122070d9f5b3fd7a775bf139f63a28cccbb27153167bb1c6798607bf7c0fbe48b06164736f6c63430006060033",
  "immutableReferences": {
    "12": [
      {
        "length": 32,
        "start": 1087
      },
      {
        "length": 32,
        "start": 1180
      },
      {
        "length": 32,
        "start": 1277
      },
      {
        "length": 32,
        "start": 1738
      },
      {
        "length": 32,
        "start": 1887
      },
      {
        "length": 32,
        "start": 2154
      },
      {
        "length": 32,
        "start": 2390
      }
    ]
  },
  "source": "pragma solidity =0.6.6;\npragma experimental ABIEncoderV2;\n\n\n\n\n\nimport './utils/SafeMath.sol';\nimport './UniswapV2Library.sol';\nimport './interfaces/IERC20.sol';\nimport './interfaces/IUniswapV2Pair.sol';\nimport './interfaces/IUniswapV2Factory.sol';\nimport './interfaces/IUniswapV2Router01.sol';\nimport './interfaces/IUniswapV2Router02.sol';\nimport './interfaces/IWETH.sol'; \n\n\ncontract FlashSwap {\n    IWETH immutable WETH;\n    address Beneficiary;\n    address ApeSwapFactory;\n    address PancakeFactory;\n    address PancakeRouter;\n    address ApeRouter;\n    constructor(address pancakeFactory, address apeFactory, address wethAddress , address apeRouter, address pancakeRouter, address beneficiaryAddress) public {\n         ApeSwapFactory = apeFactory;\n         PancakeFactory = pancakeFactory;\n         WETH = IWETH(wethAddress);\n         Beneficiary = beneficiaryAddress;\n         PancakeRouter = pancakeRouter;\n         ApeRouter = apeRouter; \n    }\n    \n    \n    function startArbitrage(\n    address token0,\n    address token1,\n    uint amount0, \n    uint amount1,\n    address startFactory,\n    address endRouterAddress,\n    uint repay\n  ) external {\n  \n    address pairAddress =   IUniswapV2Factory(startFactory).getPair(token0, token1);\n    require(pairAddress != address(0), 'This pool does not exist');\n    IUniswapV2Pair(pairAddress).swap(\n      amount0, \n      amount1, \n      address(this), \n      abi.encode(endRouterAddress, repay) //not empty bytes param will trigger flashloan\n    );\n  }\n    \n    receive() external payable {}\n\n function pancakeCall(address sender, uint amount0, uint amount1, bytes calldata data) external {\n        address[] memory path = new address[](2);\n       ( address endRouter, uint repay) = abi.decode(data, (address, uint));\n        uint amountToken;\n        uint amountEth;\n        \n        \n        // scope for token{0,1}, avoids stack too deep errors\n        {\n        address token0 = IUniswapV2Pair(msg.sender).token0();\n        address token1 = IUniswapV2Pair(msg.sender).token1();\n        path[0] = amount0 == 0 ? token1 : token0; \n        path[1] = amount0 == 0 ? token0 : token1; \n\n        amountToken = token0 == address(WETH) ? amount1 : amount0;    \n        amountEth = token0 == address(WETH) ? amount0 : amount1;\n\n        }\n        IERC20 token = IERC20(path[0] == address(WETH) ? path[1] : path[0]);\n\n        if (amountToken > 0) {\n            token.approve(endRouter, amountToken);\n            uint[] memory amountReceived = IUniswapV2Router02(endRouter).swapExactTokensForETH(amountToken, 0, path,address(this),now);\n            WETH.deposit{value: amountReceived[1]}();\n            require(WETH.transfer(msg.sender, repay), \"Could Not Repay loan amount!\"); // return WETH to V2 pair\n              if(amountReceived[1] - repay > 0) {\n                WETH.transfer(Beneficiary, (amountReceived[1] - repay));\n              }\n        } else {\n            WETH.withdraw(amountEth);\n            uint [] memory amountReceived = IUniswapV2Router02(endRouter).swapExactETHForTokens{value: address(this).balance}(0, path, address(this), now);\n            require(amountReceived[1] > repay, \"Failed to get enough from swap to repay\"); // fail if we didn't get enough tokens back to repay our flash loan\n            token.transfer(msg.sender, repay); // return tokens to V2 pair\n            if(amountReceived[1] - repay > 0) {\n              token.transfer(Beneficiary, token.balanceOf(address(this))); \n              }\n            \n        }\n }\n}",
  "sourcePath": "/home/franklin/WebstormProjects/workingflashloan/contracts/FlashSwap.sol",
  "compiler": {
    "name": "solc",
    "version": "0.6.6+commit.6c089d02.Emscripten.clang"
  },
  "schemaVersion": "3.4.3",
  "updatedAt": "2021-11-09T23:07:22.106Z",
  "networkType": "ethereum",
  "devdoc": {
    "methods": {}
  },
  "userdoc": {
    "methods": {}
  }
}